{
  "contractName": "LibraryDemo",
  "abi": [
    {
      "constant": false,
      "inputs": [],
      "name": "toggleContractActive",
      "outputs": [],
      "payable": false,
      "stateMutability": "nonpayable",
      "type": "function"
    },
    {
      "constant": false,
      "inputs": [],
      "name": "renounceOwnership",
      "outputs": [],
      "payable": false,
      "stateMutability": "nonpayable",
      "type": "function"
    },
    {
      "constant": true,
      "inputs": [],
      "name": "owner",
      "outputs": [
        {
          "name": "",
          "type": "address"
        }
      ],
      "payable": false,
      "stateMutability": "view",
      "type": "function"
    },
    {
      "constant": true,
      "inputs": [],
      "name": "electricChargeAllowanceUSD",
      "outputs": [
        {
          "name": "",
          "type": "uint256"
        }
      ],
      "payable": false,
      "stateMutability": "view",
      "type": "function"
    },
    {
      "constant": false,
      "inputs": [
        {
          "name": "_newOwner",
          "type": "address"
        }
      ],
      "name": "transferOwnership",
      "outputs": [],
      "payable": false,
      "stateMutability": "nonpayable",
      "type": "function"
    },
    {
      "inputs": [],
      "payable": false,
      "stateMutability": "nonpayable",
      "type": "constructor"
    },
    {
      "anonymous": false,
      "inputs": [
        {
          "indexed": false,
          "name": "price",
          "type": "string"
        }
      ],
      "name": "LogNewElectricChargePrice",
      "type": "event"
    },
    {
      "anonymous": false,
      "inputs": [
        {
          "indexed": false,
          "name": "description",
          "type": "string"
        }
      ],
      "name": "LogNewOraclizeQuery",
      "type": "event"
    },
    {
      "anonymous": false,
      "inputs": [
        {
          "indexed": true,
          "name": "previousOwner",
          "type": "address"
        }
      ],
      "name": "OwnershipRenounced",
      "type": "event"
    },
    {
      "anonymous": false,
      "inputs": [
        {
          "indexed": true,
          "name": "previousOwner",
          "type": "address"
        },
        {
          "indexed": true,
          "name": "newOwner",
          "type": "address"
        }
      ],
      "name": "OwnershipTransferred",
      "type": "event"
    },
    {
      "constant": false,
      "inputs": [
        {
          "name": "myid",
          "type": "bytes32"
        },
        {
          "name": "result",
          "type": "string"
        }
      ],
      "name": "__callback",
      "outputs": [],
      "payable": false,
      "stateMutability": "nonpayable",
      "type": "function"
    },
    {
      "constant": false,
      "inputs": [
        {
          "name": "myid",
          "type": "bytes32"
        },
        {
          "name": "result",
          "type": "string"
        },
        {
          "name": "proof",
          "type": "bytes"
        }
      ],
      "name": "__callback",
      "outputs": [],
      "payable": false,
      "stateMutability": "nonpayable",
      "type": "function"
    },
    {
      "constant": false,
      "inputs": [],
      "name": "update",
      "outputs": [],
      "payable": true,
      "stateMutability": "payable",
      "type": "function"
    },
    {
      "constant": false,
      "inputs": [
        {
          "name": "_empId",
          "type": "uint256"
        },
        {
          "name": "_salary",
          "type": "uint256"
        }
      ],
      "name": "addEmployee",
      "outputs": [
        {
          "name": "",
          "type": "bool"
        }
      ],
      "payable": false,
      "stateMutability": "nonpayable",
      "type": "function"
    },
    {
      "constant": true,
      "inputs": [
        {
          "name": "_empId",
          "type": "uint256"
        },
        {
          "name": "_percent",
          "type": "uint256"
        }
      ],
      "name": "calulateBonus",
      "outputs": [
        {
          "name": "",
          "type": "uint256"
        }
      ],
      "payable": false,
      "stateMutability": "view",
      "type": "function"
    },
    {
      "constant": false,
      "inputs": [
        {
          "name": "_empId",
          "type": "uint256"
        }
      ],
      "name": "addElectriCarAllowanceToSalary",
      "outputs": [
        {
          "name": "",
          "type": "uint256"
        }
      ],
      "payable": false,
      "stateMutability": "nonpayable",
      "type": "function"
    }
  ],
  "bytecode": "0x60806040526000600660146101000a81548160ff0219169083151502179055503480156200002c57600080fd5b50336000806101000a81548173ffffffffffffffffffffffffffffffffffffffff021916908373ffffffffffffffffffffffffffffffffffffffff16021790555033600660006101000a81548173ffffffffffffffffffffffffffffffffffffffff021916908373ffffffffffffffffffffffffffffffffffffffff160217905550620000c7620000cd640100000000026401000000009004565b62000e49565b7f621c2856e3b87f81235f8ac8a22bbb40a0142961960710d00b2b6c380902b57e6040518080602001828103825260368152602001807f4f7261636c697a65207175657279207761732073656e742c207374616e64696e81526020017f6720627920666f722074686520616e737765722e2e2e0000000000000000000081525060400191505060405180910390a16200022d6040805190810160405280600381526020017f55524c0000000000000000000000000000000000000000000000000000000000815250608060405190810160405280604781526020017f786d6c2868747470733a2f2f7777772e6675656c65636f6e6f6d792e676f762f81526020017f77732f726573742f6675656c707269636573292e6675656c5072696365732e6581526020017f6c6563747269630000000000000000000000000000000000000000000000000081525062000230640100000000026401000000009004565b50565b6000806000600160009054906101000a900473ffffffffffffffffffffffffffffffffffffffff1673ffffffffffffffffffffffffffffffffffffffff161480620002b657506000620002b4600160009054906101000a900473ffffffffffffffffffffffffffffffffffffffff1662000812640100000000026401000000009004565b145b15620002d957620002d760006200081d640100000000026401000000009004565b505b600160009054906101000a900473ffffffffffffffffffffffffffffffffffffffff1673ffffffffffffffffffffffffffffffffffffffff166338cc48316040518163ffffffff167c0100000000000000000000000000000000000000000000000000000000028152600401602060405180830381600087803b1580156200036057600080fd5b505af115801562000375573d6000803e3d6000fd5b505050506040513d60208110156200038c57600080fd5b810190808051906020019092919050505073ffffffffffffffffffffffffffffffffffffffff16600260009054906101000a900473ffffffffffffffffffffffffffffffffffffffff1673ffffffffffffffffffffffffffffffffffffffff16141515620004f957600160009054906101000a900473ffffffffffffffffffffffffffffffffffffffff1673ffffffffffffffffffffffffffffffffffffffff166338cc48316040518163ffffffff167c0100000000000000000000000000000000000000000000000000000000028152600401602060405180830381600087803b1580156200047b57600080fd5b505af115801562000490573d6000803e3d6000fd5b505050506040513d6020811015620004a757600080fd5b8101908080519060200190929190505050600260006101000a81548173ffffffffffffffffffffffffffffffffffffffff021916908373ffffffffffffffffffffffffffffffffffffffff1602179055505b600260009054906101000a900473ffffffffffffffffffffffffffffffffffffffff1673ffffffffffffffffffffffffffffffffffffffff1663524f3889856040518263ffffffff167c01000000000000000000000000000000000000000000000000000000000281526004018080602001828103825283818151815260200191508051906020019080838360005b83811015620005a557808201518184015260208101905062000588565b50505050905090810190601f168015620005d35780820380516001836020036101000a031916815260200191505b5092505050602060405180830381600087803b158015620005f357600080fd5b505af115801562000608573d6000803e3d6000fd5b505050506040513d60208110156200061f57600080fd5b8101908080519060200190929190505050905062030d403a02670de0b6b3a7640000018111156200065757600060010291506200080b565b600260009054906101000a900473ffffffffffffffffffffffffffffffffffffffff1673ffffffffffffffffffffffffffffffffffffffff1663adf59f9982600087876040518563ffffffff167c0100000000000000000000000000000000000000000000000000000000028152600401808481526020018060200180602001838103835285818151815260200191508051906020019080838360005b8381101562000711578082015181840152602081019050620006f4565b50505050905090810190601f1680156200073f5780820380516001836020036101000a031916815260200191505b50838103825284818151815260200191508051906020019080838360005b838110156200077a5780820151818401526020810190506200075d565b50505050905090810190601f168015620007a85780820380516001836020036101000a031916815260200191505b50955050505050506020604051808303818588803b158015620007ca57600080fd5b505af1158015620007df573d6000803e3d6000fd5b50505050506040513d6020811015620007f757600080fd5b810190808051906020019092919050505091505b5092915050565b6000813b9050919050565b6000806200084e731d3b2638a7cc9f2cb3d298a3da7a90b67e5506ed62000812640100000000026401000000009004565b11156200090357731d3b2638a7cc9f2cb3d298a3da7a90b67e5506ed600160006101000a81548173ffffffffffffffffffffffffffffffffffffffff021916908373ffffffffffffffffffffffffffffffffffffffff160217905550620008f96040805190810160405280600b81526020017f6574685f6d61696e6e657400000000000000000000000000000000000000000081525062000d7e640100000000026401000000009004565b6001905062000d79565b60006200093373c03a2615d5efaf5f49f60b7bb6583eaec212fdf162000812640100000000026401000000009004565b1115620009e85773c03a2615d5efaf5f49f60b7bb6583eaec212fdf1600160006101000a81548173ffffffffffffffffffffffffffffffffffffffff021916908373ffffffffffffffffffffffffffffffffffffffff160217905550620009de6040805190810160405280600c81526020017f6574685f726f707374656e33000000000000000000000000000000000000000081525062000d7e640100000000026401000000009004565b6001905062000d79565b600062000a1873b7a07bcf2ba2f2703b24c0691b5278999c59ac7e62000812640100000000026401000000009004565b111562000acd5773b7a07bcf2ba2f2703b24c0691b5278999c59ac7e600160006101000a81548173ffffffffffffffffffffffffffffffffffffffff021916908373ffffffffffffffffffffffffffffffffffffffff16021790555062000ac36040805190810160405280600981526020017f6574685f6b6f76616e000000000000000000000000000000000000000000000081525062000d7e640100000000026401000000009004565b6001905062000d79565b600062000afd73146500cfd35b22e4a392fe0adc06de1a1368ed4862000812640100000000026401000000009004565b111562000bb25773146500cfd35b22e4a392fe0adc06de1a1368ed48600160006101000a81548173ffffffffffffffffffffffffffffffffffffffff021916908373ffffffffffffffffffffffffffffffffffffffff16021790555062000ba86040805190810160405280600b81526020017f6574685f72696e6b65627900000000000000000000000000000000000000000081525062000d7e640100000000026401000000009004565b6001905062000d79565b600062000be2736f485c8bf6fc43ea212e93bbf8ce046c7f1cb47562000812640100000000026401000000009004565b111562000c4857736f485c8bf6fc43ea212e93bbf8ce046c7f1cb475600160006101000a81548173ffffffffffffffffffffffffffffffffffffffff021916908373ffffffffffffffffffffffffffffffffffffffff1602179055506001905062000d79565b600062000c787320e12a1f859b3feae5fb2a0a32c18f5a65555bbf62000812640100000000026401000000009004565b111562000cde577320e12a1f859b3feae5fb2a0a32c18f5a65555bbf600160006101000a81548173ffffffffffffffffffffffffffffffffffffffff021916908373ffffffffffffffffffffffffffffffffffffffff1602179055506001905062000d79565b600062000d0e7351efaf4c8b3c9afbd5ab9f4bbc82784ab6ef8faa62000812640100000000026401000000009004565b111562000d74577351efaf4c8b3c9afbd5ab9f4bbc82784ab6ef8faa600160006101000a81548173ffffffffffffffffffffffffffffffffffffffff021916908373ffffffffffffffffffffffffffffffffffffffff1602179055506001905062000d79565b600090505b919050565b806003908051906020019062000d9692919062000d9a565b5050565b828054600181600116156101000203166002900490600052602060002090601f016020900481019282601f1062000ddd57805160ff191683800117855562000e0e565b8280016001018555821562000e0e579182015b8281111562000e0d57825182559160200191906001019062000df0565b5b50905062000e1d919062000e21565b5090565b62000e4691905b8082111562000e4257600081600090555060010162000e28565b5090565b90565b61214c8062000e596000396000f3006080604052600436106100af576000357c0100000000000000000000000000000000000000000000000000000000900463ffffffff1680630a22c9f8146100b45780630d7dc9af146100ff5780631385d24c1461014057806327dc297e1461015757806338bbfa50146101ce57806340b002f41461028b578063715018a6146102da5780638da5cb5b146102f1578063a2e6204514610348578063ba026be314610352578063f2fde38b1461037d575b600080fd5b3480156100c057600080fd5b506100e960048036038101908080359060200190929190803590602001909291905050506103c0565b6040518082815260200191505060405180910390f35b34801561010b57600080fd5b5061012a60048036038101908080359060200190929190505050610532565b6040518082815260200191505060405180910390f35b34801561014c57600080fd5b506101556106be565b005b34801561016357600080fd5b506101cc6004803603810190808035600019169060200190929190803590602001908201803590602001908080601f01602080910402602001604051908101604052809392919081815260200183838082843782019150505050505091929192905050506107d5565b005b3480156101da57600080fd5b506102896004803603810190808035600019169060200190929190803590602001908201803590602001908080601f0160208091040260200160405190810160405280939291908181526020018383808284378201915050505050509192919290803590602001908201803590602001908080601f01602080910402602001604051908101604052809392919081815260200183838082843782019150505050505091929192905050506108f1565b005b34801561029757600080fd5b506102c060048036038101908080359060200190929190803590602001909291905050506108f6565b604051808215151515815260200191505060405180910390f35b3480156102e657600080fd5b506102ef610a43565b005b3480156102fd57600080fd5b50610306610bd5565b604051808273ffffffffffffffffffffffffffffffffffffffff1673ffffffffffffffffffffffffffffffffffffffff16815260200191505060405180910390f35b610350610bfb565b005b34801561035e57600080fd5b50610367610d4d565b6040518082815260200191505060405180910390f35b34801561038957600080fd5b506103be600480360381019080803573ffffffffffffffffffffffffffffffffffffffff169060200190929190505050610d53565b005b600080600660009054906101000a900473ffffffffffffffffffffffffffffffffffffffff1673ffffffffffffffffffffffffffffffffffffffff163373ffffffffffffffffffffffffffffffffffffffff161415156104ae576040517f08c379a00000000000000000000000000000000000000000000000000000000081526004018080602001828103825260228152602001807f4f6e6c79206f776e65722063616e2063616c6c20746869732066756e6374696f81526020017f6e2e00000000000000000000000000000000000000000000000000000000000081525060400191505060405180910390fd5b600660149054906101000a900460ff16151561052b57600060086000868152602001908152602001600020600101541115156104e957600080fd5b6105256064610517856008600089815260200190815260200160002060010154610e4a90919063ffffffff16565b610e8290919063ffffffff16565b90508091505b5092915050565b6000600660009054906101000a900473ffffffffffffffffffffffffffffffffffffffff1673ffffffffffffffffffffffffffffffffffffffff163373ffffffffffffffffffffffffffffffffffffffff1614151561061f576040517f08c379a00000000000000000000000000000000000000000000000000000000081526004018080602001828103825260228152602001807f4f6e6c79206f776e65722063616e2063616c6c20746869732066756e6374696f81526020017f6e2e00000000000000000000000000000000000000000000000000000000000081525060400191505060405180910390fd5b600660149054906101000a900460ff1615156106b9576000600860008481526020019081526020016000206001015411151561065a57600080fd5b6106856007546008600085815260200190815260200160002060010154610e9890919063ffffffff16565b6008600084815260200190815260200160002060010181905550600860008381526020019081526020016000206001015490505b919050565b600660009054906101000a900473ffffffffffffffffffffffffffffffffffffffff1673ffffffffffffffffffffffffffffffffffffffff163373ffffffffffffffffffffffffffffffffffffffff161415156107a9576040517f08c379a00000000000000000000000000000000000000000000000000000000081526004018080602001828103825260228152602001807f4f6e6c79206f776e65722063616e2063616c6c20746869732066756e6374696f81526020017f6e2e00000000000000000000000000000000000000000000000000000000000081525060400191505060405180910390fd5b600660149054906101000a900460ff1615600660146101000a81548160ff021916908315150217905550565b60006107df610eb4565b73ffffffffffffffffffffffffffffffffffffffff163373ffffffffffffffffffffffffffffffffffffffff1614151561081857600080fd5b7fcc48fb02c95163c7d432173abb9f118896ba6f98fab9a10a59ad9bbc47a80c5e826040518080602001828103825283818151815260200191508051906020019080838360005b8381101561087a57808201518184015260208101905061085f565b50505050905090810190601f1680156108a75780820380516001836020036101000a031916815260200191505b509250505060405180910390a16108bd82611216565b90506108e660166108d8600a84610e4a90919063ffffffff16565b610e4a90919063ffffffff16565b600781905550505050565b505050565b6000600660009054906101000a900473ffffffffffffffffffffffffffffffffffffffff1673ffffffffffffffffffffffffffffffffffffffff163373ffffffffffffffffffffffffffffffffffffffff161415156109e3576040517f08c379a00000000000000000000000000000000000000000000000000000000081526004018080602001828103825260228152602001807f4f6e6c79206f776e65722063616e2063616c6c20746869732066756e6374696f81526020017f6e2e00000000000000000000000000000000000000000000000000000000000081525060400191505060405180910390fd5b600660149054906101000a900460ff161515610a3d57604080519081016040528084815260200183815250600860008581526020019081526020016000206000820151816000015560208201518160010155905050600190505b92915050565b600660009054906101000a900473ffffffffffffffffffffffffffffffffffffffff1673ffffffffffffffffffffffffffffffffffffffff163373ffffffffffffffffffffffffffffffffffffffff16141515610b2e576040517f08c379a00000000000000000000000000000000000000000000000000000000081526004018080602001828103825260228152602001807f4f6e6c79206f776e65722063616e2063616c6c20746869732066756e6374696f81526020017f6e2e00000000000000000000000000000000000000000000000000000000000081525060400191505060405180910390fd5b6000809054906101000a900473ffffffffffffffffffffffffffffffffffffffff1673ffffffffffffffffffffffffffffffffffffffff167ff8df31144d9c2f0f6b59d69b8b98abd5459d07f2742c4df920b25aae33c6482060405160405180910390a260008060006101000a81548173ffffffffffffffffffffffffffffffffffffffff021916908373ffffffffffffffffffffffffffffffffffffffff160217905550565b600660009054906101000a900473ffffffffffffffffffffffffffffffffffffffff1681565b7f621c2856e3b87f81235f8ac8a22bbb40a0142961960710d00b2b6c380902b57e6040518080602001828103825260368152602001807f4f7261636c697a65207175657279207761732073656e742c207374616e64696e81526020017f6720627920666f722074686520616e737765722e2e2e0000000000000000000081525060400191505060405180910390a1610d4a6040805190810160405280600381526020017f55524c0000000000000000000000000000000000000000000000000000000000815250608060405190810160405280604781526020017f786d6c2868747470733a2f2f7777772e6675656c65636f6e6f6d792e676f762f81526020017f77732f726573742f6675656c707269636573292e6675656c5072696365732e6581526020017f6c6563747269630000000000000000000000000000000000000000000000000081525061122a565b50565b60075481565b600660009054906101000a900473ffffffffffffffffffffffffffffffffffffffff1673ffffffffffffffffffffffffffffffffffffffff163373ffffffffffffffffffffffffffffffffffffffff16141515610e3e576040517f08c379a00000000000000000000000000000000000000000000000000000000081526004018080602001828103825260228152602001807f4f6e6c79206f776e65722063616e2063616c6c20746869732066756e6374696f81526020017f6e2e00000000000000000000000000000000000000000000000000000000000081525060400191505060405180910390fd5b610e47816117d0565b50565b600080831415610e5d5760009050610e7c565b8183029050818382811515610e6e57fe5b04141515610e7857fe5b8090505b92915050565b60008183811515610e8f57fe5b04905092915050565b60008183019050828110151515610eab57fe5b80905092915050565b600080600160009054906101000a900473ffffffffffffffffffffffffffffffffffffffff1673ffffffffffffffffffffffffffffffffffffffff161480610f2657506000610f24600160009054906101000a900473ffffffffffffffffffffffffffffffffffffffff166118ca565b145b15610f3757610f3560006118d5565b505b600160009054906101000a900473ffffffffffffffffffffffffffffffffffffffff1673ffffffffffffffffffffffffffffffffffffffff166338cc48316040518163ffffffff167c0100000000000000000000000000000000000000000000000000000000028152600401602060405180830381600087803b158015610fbd57600080fd5b505af1158015610fd1573d6000803e3d6000fd5b505050506040513d6020811015610fe757600080fd5b810190808051906020019092919050505073ffffffffffffffffffffffffffffffffffffffff16600260009054906101000a900473ffffffffffffffffffffffffffffffffffffffff1673ffffffffffffffffffffffffffffffffffffffff1614151561115057600160009054906101000a900473ffffffffffffffffffffffffffffffffffffffff1673ffffffffffffffffffffffffffffffffffffffff166338cc48316040518163ffffffff167c0100000000000000000000000000000000000000000000000000000000028152600401602060405180830381600087803b1580156110d457600080fd5b505af11580156110e8573d6000803e3d6000fd5b505050506040513d60208110156110fe57600080fd5b8101908080519060200190929190505050600260006101000a81548173ffffffffffffffffffffffffffffffffffffffff021916908373ffffffffffffffffffffffffffffffffffffffff1602179055505b600260009054906101000a900473ffffffffffffffffffffffffffffffffffffffff1673ffffffffffffffffffffffffffffffffffffffff1663c281d19e6040518163ffffffff167c0100000000000000000000000000000000000000000000000000000000028152600401602060405180830381600087803b1580156111d657600080fd5b505af11580156111ea573d6000803e3d6000fd5b505050506040513d602081101561120057600080fd5b8101908080519060200190929190505050905090565b6000611223826000611d6d565b9050919050565b6000806000600160009054906101000a900473ffffffffffffffffffffffffffffffffffffffff1673ffffffffffffffffffffffffffffffffffffffff16148061129e5750600061129c600160009054906101000a900473ffffffffffffffffffffffffffffffffffffffff166118ca565b145b156112af576112ad60006118d5565b505b600160009054906101000a900473ffffffffffffffffffffffffffffffffffffffff1673ffffffffffffffffffffffffffffffffffffffff166338cc48316040518163ffffffff167c0100000000000000000000000000000000000000000000000000000000028152600401602060405180830381600087803b15801561133557600080fd5b505af1158015611349573d6000803e3d6000fd5b505050506040513d602081101561135f57600080fd5b810190808051906020019092919050505073ffffffffffffffffffffffffffffffffffffffff16600260009054906101000a900473ffffffffffffffffffffffffffffffffffffffff1673ffffffffffffffffffffffffffffffffffffffff161415156114c857600160009054906101000a900473ffffffffffffffffffffffffffffffffffffffff1673ffffffffffffffffffffffffffffffffffffffff166338cc48316040518163ffffffff167c0100000000000000000000000000000000000000000000000000000000028152600401602060405180830381600087803b15801561144c57600080fd5b505af1158015611460573d6000803e3d6000fd5b505050506040513d602081101561147657600080fd5b8101908080519060200190929190505050600260006101000a81548173ffffffffffffffffffffffffffffffffffffffff021916908373ffffffffffffffffffffffffffffffffffffffff1602179055505b600260009054906101000a900473ffffffffffffffffffffffffffffffffffffffff1673ffffffffffffffffffffffffffffffffffffffff1663524f3889856040518263ffffffff167c01000000000000000000000000000000000000000000000000000000000281526004018080602001828103825283818151815260200191508051906020019080838360005b83811015611572578082015181840152602081019050611557565b50505050905090810190601f16801561159f5780820380516001836020036101000a031916815260200191505b5092505050602060405180830381600087803b1580156115be57600080fd5b505af11580156115d2573d6000803e3d6000fd5b505050506040513d60208110156115e857600080fd5b8101908080519060200190929190505050905062030d403a02670de0b6b3a76400000181111561161e57600060010291506117c9565b600260009054906101000a900473ffffffffffffffffffffffffffffffffffffffff1673ffffffffffffffffffffffffffffffffffffffff1663adf59f9982600087876040518563ffffffff167c0100000000000000000000000000000000000000000000000000000000028152600401808481526020018060200180602001838103835285818151815260200191508051906020019080838360005b838110156116d65780820151818401526020810190506116bb565b50505050905090810190601f1680156117035780820380516001836020036101000a031916815260200191505b50838103825284818151815260200191508051906020019080838360005b8381101561173c578082015181840152602081019050611721565b50505050905090810190601f1680156117695780820380516001836020036101000a031916815260200191505b50955050505050506020604051808303818588803b15801561178a57600080fd5b505af115801561179e573d6000803e3d6000fd5b50505050506040513d60208110156117b557600080fd5b810190808051906020019092919050505091505b5092915050565b600073ffffffffffffffffffffffffffffffffffffffff168173ffffffffffffffffffffffffffffffffffffffff161415151561180c57600080fd5b8073ffffffffffffffffffffffffffffffffffffffff166000809054906101000a900473ffffffffffffffffffffffffffffffffffffffff1673ffffffffffffffffffffffffffffffffffffffff167f8be0079c531659141344cd1fd0a4f28419497f9722a3daafe3b4186f6b6457e060405160405180910390a3806000806101000a81548173ffffffffffffffffffffffffffffffffffffffff021916908373ffffffffffffffffffffffffffffffffffffffff16021790555050565b6000813b9050919050565b6000806118f5731d3b2638a7cc9f2cb3d298a3da7a90b67e5506ed6118ca565b111561199757731d3b2638a7cc9f2cb3d298a3da7a90b67e5506ed600160006101000a81548173ffffffffffffffffffffffffffffffffffffffff021916908373ffffffffffffffffffffffffffffffffffffffff16021790555061198e6040805190810160405280600b81526020017f6574685f6d61696e6e6574000000000000000000000000000000000000000000815250612061565b60019050611d68565b60006119b673c03a2615d5efaf5f49f60b7bb6583eaec212fdf16118ca565b1115611a585773c03a2615d5efaf5f49f60b7bb6583eaec212fdf1600160006101000a81548173ffffffffffffffffffffffffffffffffffffffff021916908373ffffffffffffffffffffffffffffffffffffffff160217905550611a4f6040805190810160405280600c81526020017f6574685f726f707374656e330000000000000000000000000000000000000000815250612061565b60019050611d68565b6000611a7773b7a07bcf2ba2f2703b24c0691b5278999c59ac7e6118ca565b1115611b195773b7a07bcf2ba2f2703b24c0691b5278999c59ac7e600160006101000a81548173ffffffffffffffffffffffffffffffffffffffff021916908373ffffffffffffffffffffffffffffffffffffffff160217905550611b106040805190810160405280600981526020017f6574685f6b6f76616e0000000000000000000000000000000000000000000000815250612061565b60019050611d68565b6000611b3873146500cfd35b22e4a392fe0adc06de1a1368ed486118ca565b1115611bda5773146500cfd35b22e4a392fe0adc06de1a1368ed48600160006101000a81548173ffffffffffffffffffffffffffffffffffffffff021916908373ffffffffffffffffffffffffffffffffffffffff160217905550611bd16040805190810160405280600b81526020017f6574685f72696e6b656279000000000000000000000000000000000000000000815250612061565b60019050611d68565b6000611bf9736f485c8bf6fc43ea212e93bbf8ce046c7f1cb4756118ca565b1115611c5d57736f485c8bf6fc43ea212e93bbf8ce046c7f1cb475600160006101000a81548173ffffffffffffffffffffffffffffffffffffffff021916908373ffffffffffffffffffffffffffffffffffffffff16021790555060019050611d68565b6000611c7c7320e12a1f859b3feae5fb2a0a32c18f5a65555bbf6118ca565b1115611ce0577320e12a1f859b3feae5fb2a0a32c18f5a65555bbf600160006101000a81548173ffffffffffffffffffffffffffffffffffffffff021916908373ffffffffffffffffffffffffffffffffffffffff16021790555060019050611d68565b6000611cff7351efaf4c8b3c9afbd5ab9f4bbc82784ab6ef8faa6118ca565b1115611d63577351efaf4c8b3c9afbd5ab9f4bbc82784ab6ef8faa600160006101000a81548173ffffffffffffffffffffffffffffffffffffffff021916908373ffffffffffffffffffffffffffffffffffffffff16021790555060019050611d68565b600090505b919050565b6000606060008060008693506000925060009150600090505b83518110156120425760307f0100000000000000000000000000000000000000000000000000000000000000028482815181101515611dc157fe5b9060200101517f010000000000000000000000000000000000000000000000000000000000000090047f0100000000000000000000000000000000000000000000000000000000000000027effffffffffffffffffffffffffffffffffffffffffffffffffffffffffffff191610158015611ed9575060397f0100000000000000000000000000000000000000000000000000000000000000028482815181101515611e6957fe5b9060200101517f010000000000000000000000000000000000000000000000000000000000000090047f0100000000000000000000000000000000000000000000000000000000000000027effffffffffffffffffffffffffffffffffffffffffffffffffffffffffffff191611155b15611f8a578115611efc576000861415611ef257612042565b8580600190039650505b600a8302925060308482815181101515611f1257fe5b9060200101517f010000000000000000000000000000000000000000000000000000000000000090047f0100000000000000000000000000000000000000000000000000000000000000027f010000000000000000000000000000000000000000000000000000000000000090040383019250612035565b602e7f0100000000000000000000000000000000000000000000000000000000000000028482815181101515611fbc57fe5b9060200101517f010000000000000000000000000000000000000000000000000000000000000090047f0100000000000000000000000000000000000000000000000000000000000000027effffffffffffffffffffffffffffffffffffffffffffffffffffffffffffff1916141561203457600191505b5b8080600101915050611d86565b60008611156120545785600a0a830292505b8294505050505092915050565b806003908051906020019061207792919061207b565b5050565b828054600181600116156101000203166002900490600052602060002090601f016020900481019282601f106120bc57805160ff19168380011785556120ea565b828001600101855582156120ea579182015b828111156120e95782518255916020019190600101906120ce565b5b5090506120f791906120fb565b5090565b61211d91905b80821115612119576000816000905550600101612101565b5090565b905600a165627a7a72305820c29bc9c3ece42e47a15afda8c87d9dd2b89d883448cc34c2af7b9c275a9e2fb00029",
  "source": "pragma solidity ^0.4.24;\nimport \"zeppelin-solidity/contracts/ownership/Ownable.sol\";\nimport \"zeppelin-solidity/contracts/math/SafeMath.sol\";\nimport \"../contracts/CircuitBreakable.sol\";\nimport \"../contracts/oraclizeAPI.sol\";\n\n/// @title LibraryDemo - This Dapp maintains employee salary database and calculated bonus\n/// @notice Library demo is smartcontract which demos usgae of ethereum packages and Oracle\ncontract LibraryDemo is Ownable, usingOraclize, CircuitBreakable {\n\n    using SafeMath for uint256;\n\n    uint public electricChargeAllowanceUSD;\n    mapping (uint256 => Employee) employees; \n    \n    struct Employee {\n        uint256 empId;\n        uint256  salary;\n    }\n  \n    event LogNewElectricChargePrice(string price);\n    event LogNewOraclizeQuery(string description);\n    \n    constructor() public {\n            update(); // First check at contract creation...\n        }\n\n    /// @notice  Oraclize query callback where the result of the query is obtained.\n    /// @dev Its 2 step process - sending the query and receiving back the result through call back\n    ///      and there will be delay in seconds. \n    function __callback(bytes32 myid, string memory result) public {\n        require(msg.sender == oraclize_cbAddress());\n        emit LogNewElectricChargePrice(result);\n        uint256 electricChargePriceUSD = parseInt(result); \n        //Calculate Allowance for 10 Kw/hr/day for 22 working days per month\n        electricChargeAllowanceUSD = electricChargePriceUSD.mul(10).mul(22);\n        \n    }\n    /// @notice  Oraclize query is constructed and emitted here\n    function update() public payable {\n        emit LogNewOraclizeQuery(\"Oraclize query was sent, standing by for the answer...\");\n        oraclize_query(\"URL\", \"xml(https://www.fueleconomy.gov/ws/rest/fuelprices).fuelPrices.electric\");\n    }\n  \n  \n    /// @notice  add employee\n    /// @param  _empId Employee Id\n    /// @param _salary salary\n    /// @return  return successful addition\n    function addEmployee(uint256 _empId, uint256 _salary) onlyOwner stopInEmergency public returns(bool) {\n        employees[_empId] = Employee({empId:_empId, salary:_salary});\n        return true;\n    }\n\n    /// @notice calulate the bonus of the employee\n    /// @param _empId Employee Id\n    /// @param _percent Percentage for calculation\n    /// @return return calculated bonus value \n    function calulateBonus(uint256 _empId, uint256 _percent) onlyOwner stopInEmergency public view returns(uint256) {\n        require(employees[_empId].salary > 0);\n        uint256 bonus = employees[_empId].salary.mul(_percent).div(100);\n        return bonus;\n    }\n\n    /// @notice Add Calculated electric car allowance to Salary\n    /// @param _empId Employee Id\n    /// @return return calculated new Salary \n    function addElectriCarAllowanceToSalary(uint256 _empId) onlyOwner stopInEmergency public  returns(uint256) {\n        require(employees[_empId].salary > 0);\n        employees[_empId].salary = employees[_empId].salary.add(electricChargeAllowanceUSD);\n        return employees[_empId].salary;\n    }\n    \n}\n  ",
  "sourcePath": "/Users/bvenkatachalam/Documents/BlockChain/EthDevProgram/PurchaseOrder-Application/contracts/LibraryDemo.sol",
  "compiler": {
    "name": "solc",
    "version": "0.4.25+commit.59dbf8f1.Emscripten.clang"
  },
  "schemaVersion": "2.0.2",
  "updatedAt": "2019-01-23T19:42:12.634Z"
}