{
  "contractName": "mortal",
  "abi": [
    {
      "constant": true,
      "inputs": [],
      "name": "owner",
      "outputs": [
        {
          "name": "",
          "type": "address"
        }
      ],
      "payable": false,
      "stateMutability": "view",
      "type": "function"
    },
    {
      "constant": false,
      "inputs": [],
      "name": "close",
      "outputs": [],
      "payable": false,
      "stateMutability": "nonpayable",
      "type": "function"
    }
  ],
  "bytecode": "0x6080604052336000806101000a81548173ffffffffffffffffffffffffffffffffffffffff021916908373ffffffffffffffffffffffffffffffffffffffff160217905550610234806100536000396000f30060806040526004361061004c576000357c0100000000000000000000000000000000000000000000000000000000900463ffffffff16806343d726d6146100515780638da5cb5b14610068575b600080fd5b34801561005d57600080fd5b506100666100bf565b005b34801561007457600080fd5b5061007d6101e3565b604051808273ffffffffffffffffffffffffffffffffffffffff1673ffffffffffffffffffffffffffffffffffffffff16815260200191505060405180910390f35b6000809054906101000a900473ffffffffffffffffffffffffffffffffffffffff1673ffffffffffffffffffffffffffffffffffffffff163373ffffffffffffffffffffffffffffffffffffffff161415156101a9576040517f08c379a00000000000000000000000000000000000000000000000000000000081526004018080602001828103825260228152602001807f4f6e6c79206f776e65722063616e2063616c6c20746869732066756e6374696f81526020017f6e2e00000000000000000000000000000000000000000000000000000000000081525060400191505060405180910390fd5b6000809054906101000a900473ffffffffffffffffffffffffffffffffffffffff1673ffffffffffffffffffffffffffffffffffffffff16ff5b6000809054906101000a900473ffffffffffffffffffffffffffffffffffffffff16815600a165627a7a7230582040587176f266babfc7496fe305aa12638dd939fa3b7f44a854d1d53efbb059a30029",
  "source": "pragma solidity ^0.4.24;\nimport \"../contracts/owned.sol\";\n\n/// @title Mortal contract ensures self destruction and contract money is refunded to owner\n/// @notice This contract inherits the `onlyOwner` modifier\ncontract mortal is owned {\n    // This contract inherits the `onlyOwner` modifier from\n    // `owned` and applies it to the `close` function, which\n    // causes that calls to `close` only have an effect if\n    // they are made by the stored owner.\n    function close() public onlyOwner {\n        selfdestruct(owner);\n    }\n}",
  "sourcePath": "/Users/bvenkatachalam/Documents/BlockChain/EthDevProgram/PurchaseOrder-Application/contracts/mortal.sol",
  "compiler": {
    "name": "solc",
    "version": "0.4.25+commit.59dbf8f1.Emscripten.clang"
  },
  "schemaVersion": "2.0.2",
  "updatedAt": "2019-01-23T19:42:12.624Z"
}