{
  "contractName": "PurchaseOrder",
  "abi": [
    {
      "constant": false,
      "inputs": [],
      "name": "toggleContractActive",
      "outputs": [],
      "payable": false,
      "stateMutability": "nonpayable",
      "type": "function"
    },
    {
      "constant": false,
      "inputs": [],
      "name": "close",
      "outputs": [],
      "payable": false,
      "stateMutability": "nonpayable",
      "type": "function"
    },
    {
      "constant": false,
      "inputs": [],
      "name": "renounceOwnership",
      "outputs": [],
      "payable": false,
      "stateMutability": "nonpayable",
      "type": "function"
    },
    {
      "constant": true,
      "inputs": [],
      "name": "owner",
      "outputs": [
        {
          "name": "",
          "type": "address"
        }
      ],
      "payable": false,
      "stateMutability": "view",
      "type": "function"
    },
    {
      "constant": false,
      "inputs": [
        {
          "name": "newPurchaseOrderContract",
          "type": "address"
        }
      ],
      "name": "changeBackendPurchaseOrder",
      "outputs": [
        {
          "name": "",
          "type": "bool"
        }
      ],
      "payable": false,
      "stateMutability": "nonpayable",
      "type": "function"
    },
    {
      "constant": false,
      "inputs": [
        {
          "name": "_newOwner",
          "type": "address"
        }
      ],
      "name": "transferOwnership",
      "outputs": [],
      "payable": false,
      "stateMutability": "nonpayable",
      "type": "function"
    },
    {
      "anonymous": false,
      "inputs": [
        {
          "indexed": true,
          "name": "poNumber",
          "type": "string"
        }
      ],
      "name": "LogPurchaseOrderCreated",
      "type": "event"
    },
    {
      "anonymous": false,
      "inputs": [
        {
          "indexed": true,
          "name": "poNumber",
          "type": "string"
        }
      ],
      "name": "LogPurchaseOrderApproved",
      "type": "event"
    },
    {
      "anonymous": false,
      "inputs": [
        {
          "indexed": true,
          "name": "poNumber",
          "type": "string"
        }
      ],
      "name": "LogPurchaseOrderConfirmed",
      "type": "event"
    },
    {
      "anonymous": false,
      "inputs": [
        {
          "indexed": true,
          "name": "poNumber",
          "type": "string"
        }
      ],
      "name": "LogPurchaseOrderDeclined",
      "type": "event"
    },
    {
      "anonymous": false,
      "inputs": [
        {
          "indexed": true,
          "name": "previousOwner",
          "type": "address"
        }
      ],
      "name": "OwnershipRenounced",
      "type": "event"
    },
    {
      "anonymous": false,
      "inputs": [
        {
          "indexed": true,
          "name": "previousOwner",
          "type": "address"
        },
        {
          "indexed": true,
          "name": "newOwner",
          "type": "address"
        }
      ],
      "name": "OwnershipTransferred",
      "type": "event"
    },
    {
      "constant": false,
      "inputs": [
        {
          "name": "_poNumber",
          "type": "string"
        },
        {
          "name": "_ipfsHash",
          "type": "string"
        },
        {
          "name": "_seller",
          "type": "address"
        }
      ],
      "name": "createPurchaseOrder",
      "outputs": [
        {
          "name": "",
          "type": "bool"
        }
      ],
      "payable": false,
      "stateMutability": "nonpayable",
      "type": "function"
    },
    {
      "constant": false,
      "inputs": [
        {
          "name": "_poNumber",
          "type": "string"
        }
      ],
      "name": "approvePurchaseOrder",
      "outputs": [
        {
          "name": "",
          "type": "bool"
        }
      ],
      "payable": false,
      "stateMutability": "nonpayable",
      "type": "function"
    },
    {
      "constant": false,
      "inputs": [
        {
          "name": "_poNumber",
          "type": "string"
        }
      ],
      "name": "confirmPurchaseOrder",
      "outputs": [
        {
          "name": "",
          "type": "bool"
        }
      ],
      "payable": false,
      "stateMutability": "nonpayable",
      "type": "function"
    },
    {
      "constant": false,
      "inputs": [
        {
          "name": "_poNumber",
          "type": "string"
        }
      ],
      "name": "declinePurchaseOrder",
      "outputs": [
        {
          "name": "",
          "type": "bool"
        }
      ],
      "payable": false,
      "stateMutability": "nonpayable",
      "type": "function"
    },
    {
      "constant": true,
      "inputs": [
        {
          "name": "_poNumber",
          "type": "string"
        }
      ],
      "name": "getIpfsHash",
      "outputs": [
        {
          "name": "",
          "type": "string"
        }
      ],
      "payable": false,
      "stateMutability": "view",
      "type": "function"
    },
    {
      "constant": true,
      "inputs": [
        {
          "name": "_poNumber",
          "type": "string"
        }
      ],
      "name": "getWorkflowState",
      "outputs": [
        {
          "name": "",
          "type": "uint8"
        }
      ],
      "payable": false,
      "stateMutability": "view",
      "type": "function"
    },
    {
      "constant": true,
      "inputs": [
        {
          "name": "_poNumber",
          "type": "string"
        }
      ],
      "name": "getOrderStateBuyerSeller",
      "outputs": [
        {
          "name": "",
          "type": "uint8"
        },
        {
          "name": "",
          "type": "address"
        },
        {
          "name": "",
          "type": "address"
        }
      ],
      "payable": false,
      "stateMutability": "view",
      "type": "function"
    }
  ],
  "bytecode": "0x608060405260008060146101000a81548160ff021916908315150217905550336000806101000a81548173ffffffffffffffffffffffffffffffffffffffff021916908373ffffffffffffffffffffffffffffffffffffffff16021790555033600160006101000a81548173ffffffffffffffffffffffffffffffffffffffff021916908373ffffffffffffffffffffffffffffffffffffffff1602179055506123b6806100ae6000396000f3006080604052600436106100c5576000357c0100000000000000000000000000000000000000000000000000000000900463ffffffff16806305abd134146100ca5780631385d24c146101bb578063286a4cef146101d257806343d726d6146102535780635f9ea0b11461026a578063715018a61461034c5780638da5cb5b146103635780639fdb9f68146103ba578063a4c3d9a814610415578063c43ff5c514610496578063c500ee061461057d578063d9a57ba314610608578063f2fde38b14610689575b600080fd5b3480156100d657600080fd5b50610131600480360381019080803590602001908201803590602001908080601f01602080910402602001604051908101604052809392919081815260200183838082843782019150505050505091929192905050506106cc565b6040518084600381111561014157fe5b60ff1681526020018373ffffffffffffffffffffffffffffffffffffffff1673ffffffffffffffffffffffffffffffffffffffff1681526020018273ffffffffffffffffffffffffffffffffffffffff1673ffffffffffffffffffffffffffffffffffffffff168152602001935050505060405180910390f35b3480156101c757600080fd5b506101d0610a06565b005b3480156101de57600080fd5b50610239600480360381019080803590602001908201803590602001908080601f0160208091040260200160405190810160405280939291908181526020018383808284378201915050505050509192919290505050610b1d565b604051808215151515815260200191505060405180910390f35b34801561025f57600080fd5b50610268610e59565b005b34801561027657600080fd5b506102d1600480360381019080803590602001908201803590602001908080601f0160208091040260200160405190810160405280939291908181526020018383808284378201915050505050509192919290505050610f7e565b6040518080602001828103825283818151815260200191508051906020019080838360005b838110156103115780820151818401526020810190506102f6565b50505050905090810190601f16801561033e5780820380516001836020036101000a031916815260200191505b509250505060405180910390f35b34801561035857600080fd5b5061036161121c565b005b34801561036f57600080fd5b506103786113b0565b604051808273ffffffffffffffffffffffffffffffffffffffff1673ffffffffffffffffffffffffffffffffffffffff16815260200191505060405180910390f35b3480156103c657600080fd5b506103fb600480360381019080803573ffffffffffffffffffffffffffffffffffffffff1690602001909291905050506113d6565b604051808215151515815260200191505060405180910390f35b34801561042157600080fd5b5061047c600480360381019080803590602001908201803590602001908080601f01602080910402602001604051908101604052809392919081815260200183838082843782019150505050505091929192905050506115f6565b604051808215151515815260200191505060405180910390f35b3480156104a257600080fd5b50610563600480360381019080803590602001908201803590602001908080601f0160208091040260200160405190810160405280939291908181526020018383808284378201915050505050509192919290803590602001908201803590602001908080601f0160208091040260200160405190810160405280939291908181526020018383808284378201915050505050509192919290803573ffffffffffffffffffffffffffffffffffffffff169060200190929190505050611932565b604051808215151515815260200191505060405180910390f35b34801561058957600080fd5b506105e4600480360381019080803590602001908201803590602001908080601f0160208091040260200160405190810160405280939291908181526020018383808284378201915050505050509192919290505050611ba3565b604051808260038111156105f457fe5b60ff16815260200191505060405180910390f35b34801561061457600080fd5b5061066f600480360381019080803590602001908201803590602001908080601f0160208091040260200160405190810160405280939291908181526020018383808284378201915050505050509192919290505050611db6565b604051808215151515815260200191505060405180910390f35b34801561069557600080fd5b506106ca600480360381019080803573ffffffffffffffffffffffffffffffffffffffff1690602001909291905050506120f2565b005b6000806000836004816040518082805190602001908083835b60208310151561070a57805182526020820191506020810190506020830392506106e5565b6001836020036101000a038019825116818451168082178552505050505050905001915050908152602001604051809103902060020160019054906101000a900473ffffffffffffffffffffffffffffffffffffffff1673ffffffffffffffffffffffffffffffffffffffff163373ffffffffffffffffffffffffffffffffffffffff16148061085357506004816040518082805190602001908083835b6020831015156107cd57805182526020820191506020810190506020830392506107a8565b6001836020036101000a038019825116818451168082178552505050505050905001915050908152602001604051809103902060030160009054906101000a900473ffffffffffffffffffffffffffffffffffffffff1673ffffffffffffffffffffffffffffffffffffffff163373ffffffffffffffffffffffffffffffffffffffff16145b151561085e57600080fd5b6004856040518082805190602001908083835b6020831015156108965780518252602082019150602081019050602083039250610871565b6001836020036101000a038019825116818451168082178552505050505050905001915050908152602001604051809103902060020160009054906101000a900460ff166004866040518082805190602001908083835b60208310151561091257805182526020820191506020810190506020830392506108ed565b6001836020036101000a038019825116818451168082178552505050505050905001915050908152602001604051809103902060030160009054906101000a900473ffffffffffffffffffffffffffffffffffffffff166004876040518082805190602001908083835b6020831015156109a1578051825260208201915060208101905060208303925061097c565b6001836020036101000a038019825116818451168082178552505050505050905001915050908152602001604051809103902060020160019054906101000a900473ffffffffffffffffffffffffffffffffffffffff16935093509350509193909250565b600160009054906101000a900473ffffffffffffffffffffffffffffffffffffffff1673ffffffffffffffffffffffffffffffffffffffff163373ffffffffffffffffffffffffffffffffffffffff16141515610af1576040517f08c379a00000000000000000000000000000000000000000000000000000000081526004018080602001828103825260288152602001807f546865206d73672e73656e646572206d75737420626520636f6e74726163742781526020017f73206f776e65722100000000000000000000000000000000000000000000000081525060400191505060405180910390fd5b600060149054906101000a900460ff1615600060146101000a81548160ff021916908315150217905550565b6000816004816040518082805190602001908083835b602083101515610b585780518252602082019150602081019050602083039250610b33565b6001836020036101000a038019825116818451168082178552505050505050905001915050908152602001604051809103902060020160009054906101000a900460ff166003811115610ba757fe5b60006003811115610bb457fe5b141515610c4f576040517f08c379a000000000000000000000000000000000000000000000000000000000815260040180806020018281038252602a8152602001807f54686973206974656d73207374617465206d75737420626520696e204372656181526020017f746564207374617465210000000000000000000000000000000000000000000081525060400191505060405180910390fd5b826004816040518082805190602001908083835b602083101515610c885780518252602082019150602081019050602083039250610c63565b6001836020036101000a038019825116818451168082178552505050505050905001915050908152602001604051809103902060030160009054906101000a900473ffffffffffffffffffffffffffffffffffffffff1673ffffffffffffffffffffffffffffffffffffffff163373ffffffffffffffffffffffffffffffffffffffff16141515610d1857600080fd5b600060149054906101000a900460ff161515610e525760016004856040518082805190602001908083835b602083101515610d685780518252602082019150602081019050602083039250610d43565b6001836020036101000a038019825116818451168082178552505050505050905001915050908152602001604051809103902060020160006101000a81548160ff02191690836003811115610db957fe5b0217905550836040518082805190602001908083835b602083101515610df45780518252602082019150602081019050602083039250610dcf565b6001836020036101000a03801982511681845116808217855250505050505090500191505060405180910390207f464eb7308324cad107007fc8c3bd093fe9498d2b89747e702f00305bc55f931d60405160405180910390a2600192505b5050919050565b600160009054906101000a900473ffffffffffffffffffffffffffffffffffffffff1673ffffffffffffffffffffffffffffffffffffffff163373ffffffffffffffffffffffffffffffffffffffff16141515610f44576040517f08c379a00000000000000000000000000000000000000000000000000000000081526004018080602001828103825260288152602001807f546865206d73672e73656e646572206d75737420626520636f6e74726163742781526020017f73206f776e65722100000000000000000000000000000000000000000000000081525060400191505060405180910390fd5b6000809054906101000a900473ffffffffffffffffffffffffffffffffffffffff1673ffffffffffffffffffffffffffffffffffffffff16ff5b6060816004816040518082805190602001908083835b602083101515610fb95780518252602082019150602081019050602083039250610f94565b6001836020036101000a038019825116818451168082178552505050505050905001915050908152602001604051809103902060020160019054906101000a900473ffffffffffffffffffffffffffffffffffffffff1673ffffffffffffffffffffffffffffffffffffffff163373ffffffffffffffffffffffffffffffffffffffff16148061110257506004816040518082805190602001908083835b60208310151561107c5780518252602082019150602081019050602083039250611057565b6001836020036101000a038019825116818451168082178552505050505050905001915050908152602001604051809103902060030160009054906101000a900473ffffffffffffffffffffffffffffffffffffffff1673ffffffffffffffffffffffffffffffffffffffff163373ffffffffffffffffffffffffffffffffffffffff16145b151561110d57600080fd5b6004836040518082805190602001908083835b6020831015156111455780518252602082019150602081019050602083039250611120565b6001836020036101000a03801982511681845116808217855250505050505090500191505090815260200160405180910390206001018054600181600116156101000203166002900480601f01602080910402602001604051908101604052809291908181526020018280546001816001161561010002031660029004801561120f5780601f106111e45761010080835404028352916020019161120f565b820191906000526020600020905b8154815290600101906020018083116111f257829003601f168201915b5050505050915050919050565b600160009054906101000a900473ffffffffffffffffffffffffffffffffffffffff1673ffffffffffffffffffffffffffffffffffffffff163373ffffffffffffffffffffffffffffffffffffffff16141515611307576040517f08c379a00000000000000000000000000000000000000000000000000000000081526004018080602001828103825260288152602001807f546865206d73672e73656e646572206d75737420626520636f6e74726163742781526020017f73206f776e65722100000000000000000000000000000000000000000000000081525060400191505060405180910390fd5b600160009054906101000a900473ffffffffffffffffffffffffffffffffffffffff1673ffffffffffffffffffffffffffffffffffffffff167ff8df31144d9c2f0f6b59d69b8b98abd5459d07f2742c4df920b25aae33c6482060405160405180910390a26000600160006101000a81548173ffffffffffffffffffffffffffffffffffffffff021916908373ffffffffffffffffffffffffffffffffffffffff160217905550565b600160009054906101000a900473ffffffffffffffffffffffffffffffffffffffff1681565b6000600160009054906101000a900473ffffffffffffffffffffffffffffffffffffffff1673ffffffffffffffffffffffffffffffffffffffff163373ffffffffffffffffffffffffffffffffffffffff161415156114c3576040517f08c379a00000000000000000000000000000000000000000000000000000000081526004018080602001828103825260288152602001807f546865206d73672e73656e646572206d75737420626520636f6e74726163742781526020017f73206f776e65722100000000000000000000000000000000000000000000000081525060400191505060405180910390fd5b600260009054906101000a900473ffffffffffffffffffffffffffffffffffffffff1673ffffffffffffffffffffffffffffffffffffffff168273ffffffffffffffffffffffffffffffffffffffff161415156115ec576003600260009054906101000a900473ffffffffffffffffffffffffffffffffffffffff1690806001815401808255809150509060018203906000526020600020016000909192909190916101000a81548173ffffffffffffffffffffffffffffffffffffffff021916908373ffffffffffffffffffffffffffffffffffffffff1602179055505081600260006101000a81548173ffffffffffffffffffffffffffffffffffffffff021916908373ffffffffffffffffffffffffffffffffffffffff160217905550600190506115f1565b600090505b919050565b6000816004816040518082805190602001908083835b602083101515611631578051825260208201915060208101905060208303925061160c565b6001836020036101000a038019825116818451168082178552505050505050905001915050908152602001604051809103902060020160009054906101000a900460ff16600381111561168057fe5b6001600381111561168d57fe5b141515611728576040517f08c379a00000000000000000000000000000000000000000000000000000000081526004018080602001828103825260298152602001807f54686973206974656d73207374617465206d75737420626520696e204f70656e81526020017f656420737461746521000000000000000000000000000000000000000000000081525060400191505060405180910390fd5b826004816040518082805190602001908083835b602083101515611761578051825260208201915060208101905060208303925061173c565b6001836020036101000a038019825116818451168082178552505050505050905001915050908152602001604051809103902060020160019054906101000a900473ffffffffffffffffffffffffffffffffffffffff1673ffffffffffffffffffffffffffffffffffffffff163373ffffffffffffffffffffffffffffffffffffffff161415156117f157600080fd5b600060149054906101000a900460ff16151561192b5760036004856040518082805190602001908083835b602083101515611841578051825260208201915060208101905060208303925061181c565b6001836020036101000a038019825116818451168082178552505050505050905001915050908152602001604051809103902060020160006101000a81548160ff0219169083600381111561189257fe5b0217905550836040518082805190602001908083835b6020831015156118cd57805182526020820191506020810190506020830392506118a8565b6001836020036101000a03801982511681845116808217855250505050505090500191505060405180910390207f918cd478ef719402cb7a1d77bc8d589d81b6850a20dd75178489ebeca3ac1ed760405160405180910390a2600192505b5050919050565b60008060149054906101000a900460ff161515611b9c5760a0604051908101604052808581526020018481526020016000600381111561196e57fe5b81526020018373ffffffffffffffffffffffffffffffffffffffff1681526020013373ffffffffffffffffffffffffffffffffffffffff168152506004856040518082805190602001908083835b6020831015156119e157805182526020820191506020810190506020830392506119bc565b6001836020036101000a03801982511681845116808217855250505050505090500191505090815260200160405180910390206000820151816000019080519060200190611a309291906122e5565b506020820151816001019080519060200190611a4d9291906122e5565b5060408201518160020160006101000a81548160ff02191690836003811115611a7257fe5b021790555060608201518160020160016101000a81548173ffffffffffffffffffffffffffffffffffffffff021916908373ffffffffffffffffffffffffffffffffffffffff16021790555060808201518160030160006101000a81548173ffffffffffffffffffffffffffffffffffffffff021916908373ffffffffffffffffffffffffffffffffffffffff160217905550905050836040518082805190602001908083835b602083101515611b3e5780518252602082019150602081019050602083039250611b19565b6001836020036101000a03801982511681845116808217855250505050505090500191505060405180910390207fdda99a1c930c6502a99f6682ce30e96df77b5195a236af7f8c24f6d0333293da60405160405180910390a2600190505b9392505050565b6000816004816040518082805190602001908083835b602083101515611bde5780518252602082019150602081019050602083039250611bb9565b6001836020036101000a038019825116818451168082178552505050505050905001915050908152602001604051809103902060020160019054906101000a900473ffffffffffffffffffffffffffffffffffffffff1673ffffffffffffffffffffffffffffffffffffffff163373ffffffffffffffffffffffffffffffffffffffff161480611d2757506004816040518082805190602001908083835b602083101515611ca15780518252602082019150602081019050602083039250611c7c565b6001836020036101000a038019825116818451168082178552505050505050905001915050908152602001604051809103902060030160009054906101000a900473ffffffffffffffffffffffffffffffffffffffff1673ffffffffffffffffffffffffffffffffffffffff163373ffffffffffffffffffffffffffffffffffffffff16145b1515611d3257600080fd5b6004836040518082805190602001908083835b602083101515611d6a5780518252602082019150602081019050602083039250611d45565b6001836020036101000a038019825116818451168082178552505050505050905001915050908152602001604051809103902060020160009054906101000a900460ff16915050919050565b6000816004816040518082805190602001908083835b602083101515611df15780518252602082019150602081019050602083039250611dcc565b6001836020036101000a038019825116818451168082178552505050505050905001915050908152602001604051809103902060020160009054906101000a900460ff166003811115611e4057fe5b60016003811115611e4d57fe5b141515611ee8576040517f08c379a00000000000000000000000000000000000000000000000000000000081526004018080602001828103825260298152602001807f54686973206974656d73207374617465206d75737420626520696e204f70656e81526020017f656420737461746521000000000000000000000000000000000000000000000081525060400191505060405180910390fd5b826004816040518082805190602001908083835b602083101515611f215780518252602082019150602081019050602083039250611efc565b6001836020036101000a038019825116818451168082178552505050505050905001915050908152602001604051809103902060020160019054906101000a900473ffffffffffffffffffffffffffffffffffffffff1673ffffffffffffffffffffffffffffffffffffffff163373ffffffffffffffffffffffffffffffffffffffff16141515611fb157600080fd5b600060149054906101000a900460ff1615156120eb5760026004856040518082805190602001908083835b6020831015156120015780518252602082019150602081019050602083039250611fdc565b6001836020036101000a038019825116818451168082178552505050505050905001915050908152602001604051809103902060020160006101000a81548160ff0219169083600381111561205257fe5b0217905550836040518082805190602001908083835b60208310151561208d5780518252602082019150602081019050602083039250612068565b6001836020036101000a03801982511681845116808217855250505050505090500191505060405180910390207f520cefaf9ae62f4ac7f260d5e8dfa0c0c85277b1a2ca3b59a5e33098c53e2bd360405160405180910390a2600192505b5050919050565b600160009054906101000a900473ffffffffffffffffffffffffffffffffffffffff1673ffffffffffffffffffffffffffffffffffffffff163373ffffffffffffffffffffffffffffffffffffffff161415156121dd576040517f08c379a00000000000000000000000000000000000000000000000000000000081526004018080602001828103825260288152602001807f546865206d73672e73656e646572206d75737420626520636f6e74726163742781526020017f73206f776e65722100000000000000000000000000000000000000000000000081525060400191505060405180910390fd5b6121e6816121e9565b50565b600073ffffffffffffffffffffffffffffffffffffffff168173ffffffffffffffffffffffffffffffffffffffff161415151561222557600080fd5b8073ffffffffffffffffffffffffffffffffffffffff16600160009054906101000a900473ffffffffffffffffffffffffffffffffffffffff1673ffffffffffffffffffffffffffffffffffffffff167f8be0079c531659141344cd1fd0a4f28419497f9722a3daafe3b4186f6b6457e060405160405180910390a380600160006101000a81548173ffffffffffffffffffffffffffffffffffffffff021916908373ffffffffffffffffffffffffffffffffffffffff16021790555050565b828054600181600116156101000203166002900490600052602060002090601f016020900481019282601f1061232657805160ff1916838001178555612354565b82800160010185558215612354579182015b82811115612353578251825591602001919060010190612338565b5b5090506123619190612365565b5090565b61238791905b8082111561238357600081600090555060010161236b565b5090565b905600a165627a7a72305820f4d7463fd894f3c7029bcfec2ab7208c35b07693ca6f3b83b794943036d730c00029",
  "source": "pragma solidity ^0.4.24;\nimport \"../contracts/mortal.sol\";\nimport \"../contracts/CircuitBreakable.sol\";\nimport \"../contracts/Registry.sol\";\n\n/// @title PurchaseOrder Contract \n/// @notice Creates/modifies PurchaseOrder and maintains workflow state of PO in supplyChain\n\ncontract PurchaseOrder is mortal, CircuitBreakable, Registry {\n\n    //State Variables\n    mapping (string => Order) orders;\n    enum WorkflowState { Created, Opened, Confirmed, Declined }\n    \n    //Data structure to hold most important purchase order details on Ethereum\n    struct Order {\n      string poNumber; //Key should be unique\n      string ipfsHash; //IPFS hash data of PO document\n      WorkflowState state;\n      address seller;\n      address buyer;\n  } \n\n    //\n    // Events - publicize actions to external listeners\n    //\n  \n    event LogPurchaseOrderCreated(string indexed poNumber);\n    event LogPurchaseOrderApproved(string indexed poNumber);\n    event LogPurchaseOrderConfirmed(string indexed poNumber);\n    event LogPurchaseOrderDeclined(string indexed poNumber);\n    \n    //modifiers\n    modifier onlyOwner() { require(msg.sender == owner, \"The msg.sender must be contract's owner!\");_;}\n    modifier isCallerSeller(string _poNumber) { require (msg.sender == orders[_poNumber].seller); _;}\n    modifier isCallerBuyer(string _poNumber) { require (msg.sender == orders[_poNumber].buyer); _;}\n    modifier isCallerBuyerOrSeller(string _poNumber) { require (msg.sender == orders[_poNumber].seller || msg.sender == orders[_poNumber].buyer); _;}\n    modifier opened(string _poNumber) {\n      require(WorkflowState.Opened == orders[_poNumber].state, \"This items state must be in Opened state!\");\n      _;\n    }\n    modifier created(string _poNumber) {\n        require(WorkflowState.Created == orders[_poNumber].state, \"This items state must be in Created state!\");\n        _;\n    }\n  \n  /// @notice create the PO\n  /// @dev The function which creates purchase order can be used to modify PO as well\n  /// @param _poNumber Key holding the mapping of Order to OrderDetails\n  /// @param _ipfsHash IPFS hash data that stores entire PO document\n  /// @return true if successful\n\n  function createPurchaseOrder(string _poNumber, string _ipfsHash, address _seller) stopInEmergency public returns(bool) {\n    orders[_poNumber] = Order({poNumber: _poNumber, ipfsHash: _ipfsHash, state: WorkflowState.Created, seller: _seller, buyer :msg.sender});\n    emit LogPurchaseOrderCreated(_poNumber);\n    return true;\n  }\n\n  /// @notice confirm the PO - Only buyer can approve PO / PO should be in CREATED state before approval\n  /// @param _poNumber Key holding the mapping of Order to OrderDetails\n  /// @return true if successful\n\n  function approvePurchaseOrder(string _poNumber) created(_poNumber) isCallerBuyer(_poNumber) stopInEmergency public returns(bool) {\n    orders[_poNumber].state = WorkflowState.Opened;\n    emit LogPurchaseOrderApproved(_poNumber);\n    return true;\n  }\n\n  /// @notice confirm the PO - Only seller can confirm PO / PO should be in OPENED state before confirmation\n  /// @param _poNumber Key holding the mapping of Order to OrderDetails\n  /// @return true if successful\n\n  function confirmPurchaseOrder(string _poNumber) opened(_poNumber) isCallerSeller(_poNumber) stopInEmergency public returns(bool) {\n    orders[_poNumber].state = WorkflowState.Confirmed;\n    emit LogPurchaseOrderConfirmed(_poNumber);\n    return true;\n  }\n\n  /// @notice decline the PO - Only seller can decline PO / PO should be in OPENED state before Declining\n  /// @param _poNumber Key holding the mapping of Order to OrderDetails\n  /// @return true if successful\n  \n  function declinePurchaseOrder(string _poNumber) opened(_poNumber) isCallerSeller(_poNumber) stopInEmergency public returns(bool) {\n    orders[_poNumber].state = WorkflowState.Declined;\n    emit LogPurchaseOrderDeclined(_poNumber);\n    return true;\n  }\n\n  /// @notice Gets IPFSHash of the PO Details\n  /// @param _poNumber Key holding the mapping of Order to OrderDetails\n  /// @return string ipfsHash\n\n  function getIpfsHash(string _poNumber) isCallerBuyerOrSeller(_poNumber) public view returns(string) {\n    return orders[_poNumber].ipfsHash;\n  }\n\n  /// @notice Gets WorkflowState of the PO Details\n  /// @param _poNumber Key holding the mapping of Order to OrderDetails\n  /// @return WorkflowState \n  function getWorkflowState(string _poNumber) isCallerBuyerOrSeller(_poNumber) public view returns(WorkflowState) {\n    return orders[_poNumber].state;\n  }\n\n  /// @notice Gets WorkflowState, Buyer, Seller of the PO Details\n  /// @param _poNumber Key holding the mapping of Order to OrderDetails\n  /// @return WorkflowState ,Buyer, Seller\n  function getOrderStateBuyerSeller(string _poNumber) isCallerBuyerOrSeller(_poNumber) public view returns(WorkflowState, address, address) {\n    return (orders[_poNumber].state, orders[_poNumber].buyer, orders[_poNumber].seller);\n  }\n\n\n  \n}\n\n",
  "sourcePath": "/Users/bvenkatachalam/Documents/BlockChain/EthDevProgram/PurchaseOrder-Application/contracts/PurchaseOrder.sol",
  "compiler": {
    "name": "solc",
    "version": "0.4.25+commit.59dbf8f1.Emscripten.clang"
  },
  "schemaVersion": "2.0.2",
  "updatedAt": "2019-02-09T17:10:41.487Z"
}